:0400000002005C326C
:01000B0032C2
:0100130032BA
:01001B0032B2
:0100230032AA
:03002B000204DDEF
:030033000204C6FE
:03004300021E009A
:03005300021E008A
:201E0000020B5B00020BA700020B8200020C1900020BCC00020C4000021EB800021EB80019
:201E2000021EB800021EB800021EB800021EB800021EB800021EB800021EB800021EB800E2
:201E4000021EB800021EB800021EB800021EB800021EB800021EB800021EB800021EB800C2
:201E6000021EB800021EB800021EB800021EB800021EB800021EB800021EB800021EB800A2
:201E8000021EB800021EB800021EB800021EB800021EB800021EB800021EB800021EB80082
:191EA000021EB800021EB800021EB800021EB800021EB800021EB80032E7
:201F00001201000200000040470515102410010200010A0600020000004001000902200045
:201F2000010100A0320904000002FF000000070502020002000705860200020009022000EC
:201F4000010100A0320904000002FF00000007050202400000070586024000000403090467
:201F60001003430079007000720065007300730010034D0053004100200046005700500064
:021F800000005F
:0300560002005C49
:0300CA00020059D8
:030059000200CDD5
:2000CD00C203C201C202C2001205EB75100075111F75121275131F75141C75151F75163C84
:2000ED0075171F751C5C751D1F851618851719AE18AF198E828F83A37402F085141A85153C
:20010D001BAE1AAF1B8E828F83A37407F0D2E843D82090E668E0FF74094FF090E65CE0FFD6
:20012D00743D4FF0C2BDAF8E74DF5FF58E75C80475CBF075CA5FD2ADD2AF90E680E0FF20CD
:20014D00E105D2041204F890E680E0FF74F75FF0AF8E74F85FF58EC2033000051201A9C236
:20016D0000300333120B0F502EC203120D1920012090E682E0FF30E70890E682E0FF20E156
:20018D00EA90E682E0FF30E60890E682E0FF20E0DA1205B2120B1112067180BD90E6B9E0F6
:2001AD00FF24F450030204AEEF2F2F9001BC730202AF02035A0204AE0204190204AE020468
:2001CD00AE0201E00204AE0202A90202A302029702029D120B1340030204BC90E6BBE0FFF8
:2001ED00BF01028017BF02028038BF03028059BF0602801BBF0702803C02028BAF1190E6D6
:20020D00B3EFF0AE107F0090E6B4EEF00204BCAF1390E6B3EFF0AE127F0090E6B4EEF00225
:20022D0004BCAF1990E6B3EFF0AE187F0090E6B4EEF00204BCAF1B90E6B3EFF0AE1A7F00F9
:20024D0090E6B4EEF00204BC90E6BAE0F582120530AE82AF837D008E028F038D04EE4F60CA
:20026D00118B0790E6B3EFF07B0090E6B4EAF00204BC90E6A0E0FF74014FF00204BC90E6A4
:20028D00A0E0FF74014FF00204BC120B3C0204BC120B340204BC120B150204BC120B1D02FE
:2002AD0004BC120B5340030204BC90E6B8E0FFBF8002800DBF8102802DBF8202803E02032C
:2002CD004EA201E43325E0FFA202E433FE420790E740EFF090E741E4F090E68AF090E68BF0
:2002ED007402F00204BC90E740E4F090E741F090E68AF090E68B7402F00204BC90E6BCE06B
:20030D00FF53077E90E6BCE0FEC374809EE4334F900CFE93FF3395E0FE74A12FFF74E63E81
:20032D00FE8F828E83E0FF53070190E740EFF090E741E4F090E68AF090E68B7402F00204D7
:20034D00BC90E6A0E0FF74014FF00204BC120B5540030204BC90E6B8E0FF6008BF0202803A
:20036D001C0204BC90E6BAE0FFBF0105C2010204BC90E6A0E0FF74014FF00204BC90E6BA9E
:20038D00E0600302040D90E6BCE0FF53077E90E6BCE0FEC374809EE4334F900CFE93FF33E7
:2003AD0095E0FE74A12FFF74E63EFE90E6BCE0FD53057E90E6BCE0FCC374809CE4334D90AA
:2003CD000CFE93FD3395E0FC74A12DFD74E63CFC8D828C83E0FD5305FE8F828E83EDF09021
:2003ED00E6BCE05480C423541FFF90E6BCE0FE740F5E90E6832FF0E0FF74204FF00204BCC4
:20040D0090E6A0E0FF74014FF00204BC120B5740030204BC90E6B8E0FF6008BF020280260D
:20042D000204BC90E6BAE0FFBF0105D2010204BC90E6BAE0FFBF02030204BC90E6A0E0FFFA
:20044D0074014FF0806990E6BCE0FF53077E90E6BCE0FEC374809EE4334F900CFE93FF33DF
:20046D0095E0FE74A12FFF74E63EFE90E6BCE0FD53057E90E6BCE0FCC374809CE4334D90E9
:20048D000CFE93FD3395E0FC74A12DFD74E63CFC8D828C83E0FD4305018F828E83EDF0807D
:2004AD000E120B59500990E6A0E0FF74014FF090E6A0E0FF74804FF022C0E0C007C0D075F3
:2004CD00D000AFD874EF5FF5D8D0D0D007D0E032C0E0C0D0051EE51E700205247401252520
:2004ED0040020525C2CFD0D0D0E03230040B90E680E0FF740A4FF0800990E680E0FF7408C5
:20050D004FF09005DC12056790E65D74FFF090E65FF0AF9174EF5FF59190E680E0FF74F7DD
:20052D005FF022AF82AD1CAE1D8D828E83A3E0FCBC03238F041FEC70058D828E83228D0312
:20054D008E048D828E83E0F97A00E92BFBEA3CFC8B058C0680D390000022AE82AF8390E659
:20056D0000E0FD5418701174012EFCE43FFD8C06C313CE13CEFF801290E600E0FD5305187A
:20058D00BD1007EFCE25E0CE33FF8E048F051EBEFF011FEC4D600DC007C006120D08D00667
:2005AD00D00780E62290E682E0FF30E00890E682E0FF20E61090E682E0FF30E12090E682F3
:1E05CD00E0FF30E71890E680E0FF74014FF090001412056790E680E0FF74FE5FF0229F
:0A0CFE0000010202030304040505CF
:1500B50090E000E4F0A3F0A3F0A3F090E004F0A3F0A3F0A3F01C
:2005EB0090E600E0FF74E75F4410F090E6107420F090E611F00000000090E61274A2F0008E
:20060B0000000090E6137420F00000000090E61474E2F00000000090E6157460F0C207904A
:20062B00E6917480F00000000090E6917480F075AF07D201752300C205C206758900758051
:20064B000075900075A00075B00075B10075B2CF75B3FF75B4FF75B5FF75B6FF7590007518
:20066B00B01F75B00022120677020A66E5AA30E00122C20590E690E0FE7F0090E691E07C09
:20068B00002FFFEC3EFE90F000E0FDBDA003020849BDA103020742BDA203020875BDA303F9
:2006AB00020803BDA40302089EBDA5028014BDA6028024BDA7030207A7BDB2030208C702B9
:2006CB000A4C7526A575900075B01F75B00090E6917480F0020A557526A6C3EF9407EE94AF
:2006EB0000404890F001E0FD30E00690F002E0F58090F001E0FD30E10690F003E0F590902F
:20070B00F001E0FD30E20690F004E0F5A090F001E0FD30E30690F005E0F5B090F001E0FD10
:20072B0030E40B90F006E0F5B180037526FF90E6917480F0020A557526A1C3EF9404EE9412
:20074B0000404D90F001E0FD90F002E0FC7A037BF08B028A9A7A037BF07B008A9B90F003A1
:20076B00E0F59075B001EC6015ECF4FB8D0290E67BE0F590EC4290EB5290DAF2800A8D0351
:20078B0090E67BE0F590DBF875B00075900080037526FF90E6917480F0020A557526A7C38D
:2007AB00EF9404EE9400404490F001E0FD90F002E0FC7A037BF08B028A9A7A037BF08A9B3F
:2007CB0090F003E0F59075B0018D0390E67BE0F59005901590DBF475B000740F4CF5907523
:2007EB00B0028C9075B00075900080037526FF90E6917480F0020A557526A3C3EF9404EE17
:20080B009400402E90F001E0FD7B037CF08C038B9A7B037CF07C008B9B90F003E0F59075E6
:20082B00B00290E67BE0F590DDF875B00075900080037526FF90E6917480F0020A557526A2
:20084B00A0C3EF9404EE9400401490F003E0F59075B00485902B75B0007590008003752634
:20086B00FF90E6917480F0020A557526A2C3EF9404EE9400401190F003E0F59075B008753E
:20088B00B00075900080037526FF90E6917480F0020A557526A4C3EF9404EE940040119043
:2008AB00F003E0F59075B01075B00075900080037526FF90E6917480F0020A557526B29030
:2008CB00F004E0F52F7003752F0190E000E4F0A3F0A3F0A3F090E004F0A3F0A3F0A3F0855E
:2008EB002B9075B0047480452BF59090F002E0F52DAF2D152DEF70F9852B90752E0FE4F55B
:20090B0029F52AF527F5287440452BF590E52AC52925E0C52933F52AE528C52725E0C52776
:20092B0033F52885802C852B90E52C20E503432901E52C20E403432701AF2E152EEF70C79C
:20094B0090E000E0FCA3E0FDA3E0FEA3E0FFA829A92A7A007B0090E000E82CF0E93DA3F0F7
:20096B00EA3EA3F0EB3FA3F090E004E0FCA3E0FDA3E0FEA3E0FFA827A9287A007B0090E01C
:20098B0004E82CF0E93DA3F0EA3EA3F0EB3FA3F0152FE52F60030208F075B00075900090A4
:2009AB00F004E0F52F7003752F017401B52F03020A3F90E000E0FCA3E0FDA3E0FEA3E0FFA6
:2009CB00A82F79007A007B00883089318A328B338C828D838EF0EFC003C002C001C0001238
:2009EB000C95AC82AD83AEF0FFD000D001D002D00390E000ECF0EDA3F0EEA3F0EFA3F090AB
:200A0B00E004E0FCA3E0FDA3E0FEA3E0FF883089318A328B338C828D838EF0EF120C95ACB2
:200A2B0082AD83AEF0FF90E004ECF0EDA3F0EEA3F0EFA3F0D20775232190E6917480F0808C
:200A4B000975260090E6917480F075C8000000000075CDF075CC5F75C80422E5AA20E401F6
:200A6B00227E007FF88F068E9D7E007FF87F008E9E90E67CE526F0E4F0E580F0E590F0E594
:200A8B00A0F0E5B0F0E5B1F0E523F08F237F083007637D007EE08E058D9A7D007EE08D9B4D
:200AAB0090E67BE090E67CF090E67BE090E67CF090E67BE090E67CF090E67BE090E67CF05F
:200ACB007D047EE08E058D9A7D047EE08D9B90E67BE090E67CF090E67BE090E67CF090E68F
:200AEB007BE090E67CF090E67BE0FE90E67CF07F10C207C20690E698E4F00000000090E685
:200B0B0099EFF022D322D322D32290E6BAE0F521D32290E740E521F090E68AE4F0000000B5
:200B2B000090E68B7401F0D32290E6BAE0F522D32290E740E522F090E68AE4F000000000B1
:200B4B0090E68B7401F0D322D322D322D322D322C0E0C082C083C007C0D075D000D200AF19
:200B6B009174EF5FF59190E65D7401F0D0D0D007D083D082D0E032C0E0C082C083C007C0AF
:200B8B00D075D000AF9174EF5FF59190E65D7404F0D0D0D007D083D082D0E032C0E0C08292
:200BAB00C083C007C0D075D000AF9174EF5FF59190E65D7402F0D0D0D007D083D082D0E0BE
:200BCB0032C0E0C082C083C007C006C0D075D000851618851719AE18AF198E828F83A37422
:200BEB0002F085141A85151BAE1AAF1B8E828F83A37407F0AF9174EF5FF59190E65D7410EF
:200C0B00F0D0D0D006D007D083D082D0E032C0E0C082C083C007C0D075D000D203AF9174BB
:200C2B00EF5FF59190E65D7408F0D0D0D007D083D082D0E032C0E0C082C083C007C006C026
:200C4B00D075D00090E680E0FF30E724851418851519AE18AF198E828F83A37402F08516AC
:200C6B001A85171BAE1AAF1B8E828F83A37407F0AF9174EF5FF59190E65D7420F0D0D0D087
:0A0C8B0006D007D083D082D0E032FB
:200D08007400F58690FDA57C05A3E582458370F92290E682E044C0F090E681F0438701004E
:050D28000000000022A4
:200C9500FB7A20E4FCFDFEFFE5822582F582E58333F583E5F033F5F0EB33FB4017DAE98098
:200CB50042E5822582F582E58333F583E5F033F5F0EB33FBEC33FCED33FDEE33FEEF33FFC7
:200CD500EC9530ED9531EE9532EF95334013EC9530FCED9531FDEE9532FEEF9533FF438251
:050CF50001DABEEB2254
:06008B00E478FFF6D8FD49
:200069007900E94400601B7A00900D08780175A000E493F2A308B8000205A0D9F4DAF27528
:02008900A0FFD6
:040CFA0075820022DD
:200091007800E84400600A790175A000E4F309D8FC7800E84400600C7900900001E4F0A36D
:0400B100D8FCD9FAA4
:0D005C0075817F120CFAE5826003020059E5
:00000001FF
