:0400000002005E326A
:01000B0032C2
:0100130032BA
:01001B0032B2
:0100230032AA
:03002B000204B319
:030033000204AF15
:03004300021E009A
:03005300021E008A
:091E0000020FCD00020FFB0002ED
:081E09000FE500021053000276
:081E110010110002106B000229
:081E19001EB800021EB8000211
:081E21001EB800021EB8000209
:081E29001EB800021EB8000201
:081E31001EB800021EB80002F9
:081E39001EB800021EB80002F1
:081E41001EB800021EB80002E9
:081E49001EB800021EB80002E1
:081E51001EB800021EB80002D9
:081E59001EB800021EB80002D1
:081E61001EB800021EB80002C9
:081E69001EB800021EB80002C1
:081E71001EB800021EB80002B9
:081E79001EB800021EB80002B1
:081E81001EB800021EB80002A9
:081E89001EB800021EB80002A1
:081E91001EB800021EB8000299
:081E99001EB800021EB8000291
:081EA1001EB800021EB8000289
:081EA9001EB800021EB8000281
:071EB1001EB800021EB8007C
:011EB80032F7
:0E1F00001201000200000040470515102410D9
:041F0E0001020001CB
:0A1F12000A06000200000040010072
:0E1F1C0009022000010100A0320904000002A9
:0E1F2A00FF0000000705020200020007058606
:041F380002000200A1
:0E1F3C0009022000010100A032090400000289
:0E1F4A00FF00000007050202400000070586A8
:041F58000240000043
:041F5C00040309046D
:0E1F60001003430079007000720065007300EA
:021F6E007300FE
:0E1F700010034D0053004100200046005700B2
:021F7E00500011
:021F800000005F
:0300560002005E47
:0300CD00020059D5
:050059001200D080FE42
:0500D000C203C201C2E1
:0400D50002C2001251
:0400D90005BB7510DE
:0300DD000075119A
:0300E0001F751277
:0300E30012751380
:0300E6001F75146F
:0300E9001C75156E
:0300EC001F751667
:0300EF003C751746
:0300F2001F751C5B
:0300F5005C751D1A
:0300F8001F85164B
:0300FB001885174E
:0400FE0019AA18AB78
:0A010200198A828B83A37402F08532
:03010C00141A853D
:03010F00151BAA13
:0A0112001AAB1B8A828B83A37407CB
:0E011C00F0D2E843D82090E668E04409F09065
:0E012A00E65CE0443DF0C2BD538EDF75C804B4
:0E01380075CBF075CA5FD2ADD2AF90E680E015
:09014600FA20E105D2041204D1F3
:0C014F0090E680E0FA54F7F0538EF8C2FE
:01015B0003A0
:07015C0030000512019FC2F3
:01016300009B
:09016400300333120F81502EC24A
:01016D00038E
:0C016E0012113920012090E682E0FA30E6
:0A017A00E70890E682E0FA20E1EACF
:0E01840090E682E0FA30E60890E682E0FA208B
:02019200E0DAB1
:06019400120585120F8325
:05019A0012065280BDB9
:0C019F0090E6B9E0FA24F4500302049A40
:0701AB00EA2A2A9001B27359
:0701B20002029D0203470257
:0601B900049A0204060294
:0601BF00049A02049A02FA
:0601C50001D602049A02BB
:0601CB00029702029102FE
:0501D100028502028B13
:0801D600120F8540030204A78B
:0A01DE0090E6BBE0FABA01028016B9
:0501E800BA020280359F
:0501ED00BA030280547A
:0501F200BA06028019AD
:0501F700BA0702803888
:0201FC00807C05
:0A01FE0090E6B3E511F0AA107B00B3
:0802080090E6B4EAF00204A73D
:0A02100090E6B3E513F0AA127B009C
:08021A0090E6B4EAF00204A72B
:0A02220090E6B3E519F0AA187B007E
:08022C0090E6B4EAF00204A719
:0A02340090E6B3E51BF0AA1A7B0068
:08023E0090E6B4EAF00204A707
:0E02460090E6BAE0F582120503AA82AB837C33
:0D025400008A058B068C07EA4B4C600F906A
:0E026100E6B3EEF07E0090E6B4EDF00204A7E6
:0B026F0090E6A0E0FA4401F00204A7B2
:0B027A0090E6A0E0FA4401F00204A7A7
:06028500120FAE0204A7F7
:06028B00120FA60204A7F9
:06029100120F870204A712
:06029700120F8F0204A704
:08029D00120FC540030204A783
:0A02A50090E6B8E0FABA8002800D7E
:0502AF00BA8102802D60
:0502B400BA8202803E49
:0302B90002033C01
:0A02BC00A201E43325E0FAA202E4F7
:0E02C60033FB420290E740EAF090E741E4F09B
:0D02D40090E68AF090E68B7402F00204A719
:0E02E10090E740E4F090E741F090E68AF0905C
:0802EF00E68B7402F00204A783
:0E02F70090E6BCE0FA53027E90E6BCE0FBC34A
:0E03050074809BE4334A90111E93FA3395E006
:0E031300FB74A12AFA74E63BFB8A828B83E01E
:0E032100FA53020190E740EAF090E741E4F061
:0D032F0090E68AF090E68B7402F00204A7BD
:0B033C0090E6A0E0FA4401F00204A7E4
:08034700120FC740030204A7D6
:0C034F0090E6B8E0FA6008BA0202801BD9
:03035B000204A7F2
:0B035E0090E6BAE0FABA0105C2010205
:0203690004A7E7
:0B036B0090E6A0E0FA4401F00204A7B5
:0903760090E6BAE060030203FB0B
:0E037F0090E6BCE0FA53027E90E6BCE0FBC3C1
:0E038D0074809BE4334A90111E93FA3395E07E
:0E039B00FB74A12AFA74E63BFB90E6BCE0FC82
:0E03A90053047E90E6BCE0FDC374809DE433F7
:0E03B7004C90111E93FC3395E0FD74A12CFCBC
:0E03C50074E63DFD8C828D83E0FC5304FE8ABD
:0E03D300828B83ECF090E6BCE05480C423548F
:0E03E1001FFA90E6BCE0FB740F5B90E6832AE7
:0C03EF00F090E683E0FA4420F00204A73E
:0B03FB0090E6A0E0FA4401F00204A725
:08040600120FC940030204A714
:0C040E0090E6B8E0FA6008BA020280250F
:03041A000204A732
:0B041D0090E6BAE0FABA0105D2010235
:0204280004A727
:0B042A0090E6BAE0FABA02030204A751
:0A04350090E6A0E0FA4401F08068B0
:0E043F0090E6BCE0FA53027E90E6BCE0FBC300
:0E044D0074809BE4334A90111E93FA3395E0BD
:0E045B00FB74A12AFA74E63BFB90E6BCE0FCC1
:0E04690053047E90E6BCE0FDC374809DE43336
:0E0477004C90111E93FC3395E0FD74A12CFCFB
:0E04850074E63DFD8C828D83E0FC4304018A09
:07049300828B83ECF0800D69
:0D049A00120FCB500890E6A0E0FA4401F0EC
:0804A70090E6A0E04480F02281
:0404AF0053D8EF32FD
:0A04B300C0E0C0D075D000051EE5C2
:0504BD001E7002052580
:0804C200740125264002052605
:0704CA00C2CFD0D0D0E03218
:0C04D10030040A90E680E0FA440AF08053
:0104DD000816
:0804DE0090E680E0FA4408F00A
:0D04E6009005DC12053A90E65D74FFF09081
:0E04F300E65F74FFF05391EF90E680E054F75F
:02050100F022E6
:06050300AA82AB1CAC1D36
:0E0509008B828C83A3E0FDBD03238A051AEDCF
:0705170070058B828C83222A
:0E051E008B058C068B828C83E0FF7800EF2D1E
:0A052C00FDE83EFE8D038E0480D32F
:04053600900000220F
:0E053A00AA82AB8390E600E0FC5418701174A6
:0E054800012AFCE43BFD8C02C313CA13CAFB5C
:02055600801211
:0E05580090E600E0FC530418BC1007EBCA2527
:04056600E0CA33FBB9
:09056A008A048B051ABAFF011B7B
:0E057300EC4D600DC002C003121128D003D061
:030581000280E60F
:010584002254
:0E05850090E682E0FA30E00890E682E0FA208C
:02059300E61070
:0E05950090E682E0FA30E11D90E682E0FA3056
:0205A300E7155A
:0E05A50090E680E04401F090001412053A90B8
:0705B300E680E0FA54FEF0BF
:0105BA00221E
:0A111E0000010202030304040505AA
:0E00B70090E000E4F0A3F0A3F0A3F090E004CA
:0800C500E4F0A3F0A3F0A3F0A6
:0E05BB0090E600E0FA74E75A90E600F5F0745E
:0E05C9001045F0F090E6107420F090E61174EA
:0E05D70020F00000000090E61274A2F0000078
:0D05E500000090E6137420F000000000906C
:0E05F200E61474E2F00000000090E61574605C
:0A060000F0C208C20790E691748072
:0E060A00F00000000090E6917480F075AF07DC
:06061800D20175240075FB
:05061E002700C205C227
:0A062300067589007526FF7580003A
:0E062D0075900075A00075B00075B10075B233
:0E063B00CF75B3FF75B4FF75B5FF75B6FF75CB
:09064900900075B01F75B000228D
:06065200120658020EDB47
:06065800E5AA30E00122DA
:0C065E00C20590E690E0FB7A0090E69167
:0E066A00E0FC7D00EC2AFAED3BFB90F000E096
:04067800FCBCA00026
:05067C0050030209CD4E
:08068100EC244A50030209CDEC
:0E068900EC2460FC240983C0E0EC241983C03B
:02069700E0225F
:020699003A9C89
:02069B00FE60FF
:02069D00C2C5D4
:02069F00DACDB2
:0206A100CDCDBD
:0206A300CDCDBB
:0206A500CDCDB9
:0206A700CDCDB7
:0206A900366FAA
:0206AB00A72284
:0206AD005B935D
:0206AF0007073B
:0206B100070838
:0206B300080637
:0206B500060934
:0206B70009092F
:0206B90009092D
:0206BB0009092B
:0206BD00090929
:0206BF00090927
:0206C100090925
:0206C300090923
:0C06C5007528A575900075B01F75B00079
:0906D10090E6917480F00209D654
:0C06DA00C3EA9407EB9400404B7528A67F
:0E06E60090F001E0FC30E00690F002E0F580BC
:0E06F40090F001E0FC30E10690F003E0F5909C
:0E07020090F001E0FC30E20690F004E0F5A07B
:0E07100090F001E0FC30E30690F005E0F5B05B
:0E071E0090F001E0FC30E40B90F006E0F5B145
:02072C00800348
:03072E007528FF2C
:0907310090E6917480F00209D6F3
:0E073A00C3EA9404EB9400404D90F001E0FC03
:0E07480090F002E0FD7E037FF08F9A7E037F2B
:0C075600F07F008E9B7528A090F003E05F
:0A076200F59075B004ED60148C06EC
:0E076C0090E67BE0F590ED4290DEF5EDF4FEB8
:04077A005290800A0F
:02077E008C06E7
:0807800090E67BE0F590DEF845
:0807880075B0007590008003BC
:030790007528FFCA
:0907930090E6917480F00209D691
:0C079C007528A1C3EA9404EB9400404AC5
:0E07A80090F001E0FC90F002E0FD7E037FF097
:0E07B6008F9A7E037FF07F008E9B90F003E011
:0A07C400F59075B001ED60148C068D
:0E07CE0090E67BE0F590ED4290DEF5EDF4FE56
:0407DC005290800AAD
:0207E0008C0685
:0807E20090E67BE0F590DEF8E3
:0807EA0075B00075900080035A
:0307F2007528FF68
:0907F50090E6917480F00209D62F
:0C07FE007528A2C3EA9404EB9400404A62
:0E080A0090F001E0FC90F002E0FD7E037FF034
:0E0818008F9A7E037FF07F008E9B90F003E0AE
:0A082600F59075B008ED60148C0623
:0E08300090E67BE0F590ED4290DEF5EDF4FEF3
:04083E005290800A4A
:020842008C0622
:0808440090E67BE0F590DEF880
:08084C0075B0007590008003F7
:030854007528FF05
:0908570090E6917480F00209D6CC
:0C0860007528A3C3EA9404EB9400404AFE
:0E086C0090F001E0FC90F002E0FD7E037FF0D2
:0E087A008F9A7E037FF07F008E9B90F003E04C
:0A088800F59075B002ED60148C06C7
:0E08920090E67BE0F590ED4290DEF5EDF4FE91
:0408A0005290800AE8
:0208A4008C06C0
:0808A60090E67BE0F590DEF81E
:0808AE0075B000759000800395
:0308B6007528FFA3
:0908B90090E6917480F00209D66A
:0C08C2007528A4C3EA9404EB940040489D
:0E08CE0090F001E0FC90F002E0FD7E037FF070
:0E08DC008F9A7E037FF07F008E9B90F003E0EA
:0A08EA00F59075B010ED60148C0657
:0E08F40090E67BE0F590ED4290DEF5EDF4FD30
:040902005290800887
:0809060090E67BE0F590DCF8BF
:08090E0075B000759000800334
:030916007528FF42
:0909190090E6917480F00209D609
:0E092200C3EA9406EB9400400BC002C003121F
:0609300009EAD003D00229
:0D093600C3EA9405EB94004010120C2CD283
:05094300077528B075E6
:070948002401432720800376
:03094F007528FF09
:0909520090E6917480F00209D6D0
:0E095B00C3EA9406EB9400400BC002C00312E6
:0609690009EAD003D002F0
:0D096F00C3EA9405EB94004010120D89D2EC
:05097C00087528B175AB
:07098100240143272080033D
:030988007528FFD0
:08098B0090E6917480F08043B6
:0E099300C3EA9406EB9400400BC002C00312AE
:0609A10009EAD003D002B8
:0D09A700C3EA9405EB940040121209F5D24A
:0409B40007D20875E9
:0609B80028B27524024381
:0409BE00272080036B
:0309C2007528FF96
:0809C50090E6917480F08009B6
:0909CD0075280090E6917480F099
:0E09D60075C8000000000075CDF075CC5F758F
:0609E400260075C8042284
:0B09EA0090F005E0FAC3952650F622BD
:0909F50090F004E0FA70027A01AE
:0E09FE0090E000E4F0A3F0A3F0A3F090E0047A
:0E0A0C00E4F0A3F0A3F0A3F075900075B00421
:020A1A008A034D
:0E0A1C0074804590FC5304BF8C9090F002E073
:070A2A00FD90F003E0FE1E49
:0E0A31008D071DEF70FA90F001E0FD20E0034C
:030A3F004304402D
:0D0A4200747F5CF590EE24EF5003020AF380
:060A4F00E4F533F534F577
:050A550031F5328E05B1
:0A0A5A00439040E534C53325E0C5A4
:050A64003333F534E519
:060A690032C53125E0C595
:0A0A6F003133F532AC805390BFEC38
:060A790020E503433301F8
:070A7F00EC20E40343310108
:0D0A86008D071DEF70CEC00390E000E0F57D
:080A930035A3E0F536A3E0F500
:060A9B0037A3E0F538ABC3
:080AA10033AD347F00780090B2
:080AA900E000EB2535F0ED350E
:0A0AB10036A3F0EF3537A3F0E83567
:080ABB0038A3F090E004E0F51F
:080AC30035A3E0F536A3E0F5D0
:060ACB0037A3E0F538A995
:080AD10031AB327D007F009083
:080AD900E004E92535F0EB35DE
:0A0AE10036A3F0ED3537A3F0EF3532
:080AEB0038A3F0D003020B94C4
:060AF300E4F52DF52EF5DF
:040AF9002FF530F5B0
:040AFD0029F52AF5B8
:050B01002BF52C8E0510
:080B0600439040E52D252DF57B
:050B0E002DE52E33F57A
:050B13002EE52F33F573
:050B18002FE53033F56C
:040B1D0030E5292571
:040B210029F529E5A4
:050B25002A33F52AE56A
:050B2A002B33F52BE563
:0A0B2F002C33F52CAC805390BFEC82
:060B390020E503432D013D
:070B3F00EC20E4034329014F
:0E0B46008D041DEC70BA90E000E0FCA3E0FD11
:0C0B5400A3E0FEA3E0FF90E000E52D2CE4
:0A0B6000F0E52E3DA3F0E52F3EA3C3
:0C0B6A00F0E5303FA3F090E004E0FCA3B5
:0C0B7600E0FDA3E0FEA3E0FF90E004E53A
:090B8200292CF0E52A3DA3F0E561
:090B8B002B3EA3F0E52C3FA3F082
:040B9400DB028003FD
:030B9800020A1C32
:0C0B9B0075B00090F004E0FA70027A01DE
:040BA700BA0101226C
:0E0BAB0090E000E0FBA3E0FCA3E0FDA3E0FE71
:0A0BB9007F00780079008A418F4226
:0A0BC300884389448B828C838DF0F7
:0E0BCD00EEC002C007C000C0011210B5AB821E
:0E0BDB00AC83ADF0FED001D000D007D0029068
:0E0BE900E000EBF0A3ECF0A3EDF0A3EEF09033
:0E0BF700E004E0FBA3E0FCA3E0FDA3E0FE8A27
:040C0500418F428851
:0A0C09004389448B828C838DF0EE4A
:0E0C13001210B5AA82AB83ACF0FD90E004EAAB
:0B0C2100F0A3EBF0A3ECF0A3EDF02239
:090C2C0090F004E0FA70027A0174
:0E0C350090E000E4F0A3F0A3F0A3F090E00440
:0E0C4300E4F0A3F0A3F0A3F075900075B004E8
:020C51008A0314
:0E0C530074804590FC5304BF8C9090F002E03A
:070C6100FD90F003E0FE1E10
:0E0C68008D071DEF70FA90F001E0FD20E00313
:030C7600430440F4
:0C0C7900747F5CF590EE24EF405DE4F524
:050C850033F5348E057B
:0A0C8A00439040E534C53325E0C572
:0A0C94003333F534AC805390BFEC0D
:060C9E0020E503433301D1
:0D0CA4008D071DEF70E0C00390E000E0F54B
:080CB10039A3E0F53AA3E0F5D8
:060CB9003BA3E0F53CAB9B
:080CBF0033AD347F0078009092
:080CC700E000EB2539F0ED35EA
:0A0CCF003AA3F0EF353BA3F0E8353F
:070CD9003CA3F0D003805999
:060CE000E4F52DF52EF5F0
:050CE6002FF5308E0522
:080CEB00439040E52D252DF595
:050CF3002DE52E33F594
:050CF8002EE52F33F58D
:050CFD002FE53033F586
:0B0D020030AC805390BFEC20E50343B1
:020D0D002D01B6
:0E0D0F008D041DEC70D690E000E0FCA3E0FD2A
:0C0D1D00A3E0FEA3E0FF90E000E52D2C19
:0A0D2900F0E52E3DA3F0E52F3EA3F8
:060D3300F0E5303FA3F0E3
:040D3900DB02800356
:030D3D00020C5352
:0C0D400075B00090F004E0FA70027A0137
:040D4C00BA010122C5
:0E0D500090E000E0FBA3E0FCA3E0FDA3E0FECA
:060D5E008A417542007598
:0A0D640043007544008B828C838DE0
:0D0D6E00F0EE1210B5AA82AB83ACF0FD9040
:0E0D7B00E000EAF0A3EBF0A3ECF0A3EDF02211
:090D890090F004E0FA70027A0116
:0E0D920090E004E4F0A3F0A3F0A3F07590004D
:050DA00075B0048A0398
:0E0DA50074804590FC5304BF8C9090F002E0E7
:070DB300FD90F003E0FE1EBD
:0E0DBA008D071DEF70FA90F001E0FD20E003C0
:030DC800430440A1
:0C0DCB00747F5CF590EE24EF405DE4F5D1
:050DD70031F5328E052C
:0A0DDC00439040E532C53125E0C523
:0A0DE6003133F532AC805390BFECBE
:060DF00020E40343310181
:0D0DF6008D071DEF70E0C00390E004E0F5F4
:080E03003DA3E0F53EA3E0F57C
:060E0B003FA3E0F540AB3F
:080E110031AD327F0078009042
:080E1900E004EB253DF0ED358E
:0A0E21003EA3F0EF353FA3F0E835E3
:070E2B0040A3F0D003805941
:060E3200E4F529F52AF5A4
:050E38002BF52C8E05D6
:080E3D00439040E5292529F549
:050E450029E52A33F548
:050E4A002AE52B33F541
:050E4F002BE52C33F53A
:0B0E54002CAC805390BFEC20E4034363
:020E5F00290167
:0E0E61008D041DEC70D690E004E0FCA3E0FDD3
:0C0E6F00A3E0FEA3E0FF90E004E5292CC6
:0A0E7B00F0E52A3DA3F0E52B3EA3AD
:060E8500F0E52C3FA3F094
:040E8B00DB02800303
:030E8F00020DA5AC
:0C0E920075B00090F004E0FA70027A01E4
:040E9E00BA01012272
:0E0EA20090E004E0FBA3E0FCA3E0FDA3E0FE73
:060EB0008A417542007545
:0A0EB60043007544008B828C838D8D
:0D0EC000F0EE1210B5AA82AB83ACF0FD90ED
:0E0ECD00E004EAF0A3EBF0A3ECF0A3EDF022BA
:060EDB00E5AA20E401225B
:0C0EE100759DF8759E0090E67CE528F0F9
:0C0EED00E527F0E580F0E590F090E67C51
:0C0EF900E5A0F0E5B0F0E5B1F0E524F074
:0C0F05007A08300730759AE0759B009068
:0E0F1100E67BE090E67CF090E67BE090E67CEC
:0E0F1F00F090E67BE090E67CF090E67BE0FB55
:0A0F2D0090E67CF07A0CC207C206C1
:030F37005327D766
:0C0F3A00300832759AE0759B0490E67B4D
:0E0F4600E090E67CF090E67BE090E67CF09098
:0D0F5400E67BE090E67CF090E67BE0FB9011
:0A0F6100E67CF0EA2404FAC208C29C
:040F6B00065327D72B
:0C0F6F0075240090E698E4F000000000FB
:060F7B0090E699EAF02265
:020F8100D32279
:020F8300D32277
:020F8500D32275
:080F870090E6BAE0F522D32246
:0C0F8F0090E740E522F090E68AE4F000D4
:0B0F9B0000000090E68B7401F0D322F0
:080FA60090E6BAE0F523D32226
:0C0FAE0090E740E523F090E68AE4F000B4
:0B0FBA0000000090E68B7401F0D322D1
:020FC500D32235
:020FC700D32233
:020FC900D32231
:020FCB00D3222F
:0C0FCD00C0E0C082C083D2005391EF90BE
:0C0FD900E65D7401F0D083D082D0E032DD
:0E0FE500C0E0C082C0835391EF90E65D7404BB
:080FF300F0D083D082D0E0327F
:0E0FFB00C0E0C082C0835391EF90E65D7402A7
:08100900F0D083D082D0E03268
:0C101100C0E0C082C083C002C00385168E
:03101D001885171C
:0410200019AA18AB46
:0A102400198A828B83A37402F08501
:03102E00141A850C
:03103100151BAAE2
:0A1034001AAB1B8A828B83A374079A
:0E103E00F05391EF90E65D7410F0D003D002F5
:07104C00D083D082D0E03216
:0C105300C0E0C082C083D2035391EF9034
:0C105F00E65D7408F0D083D082D0E0324F
:0E106B00C0E0C082C083C002C00390E680E0F7
:08107900FA30E7248514188504
:031081001519AA94
:0A10840018AB198A828B83A3740253
:05108E00F085161A8533
:03109300171BAA7E
:0A1096001AAB1B8A828B83A3740738
:0110A000F05F
:0E10A1005391EF90E65D7420F0D003D002D0A2
:0610AF0083D082D0E03284
:0E1128007400F58690FDA57C05A3E582458345
:0311360070F9222B
:0E11390090E682E044C0F090E681F04387012A
:0611470000000000002280
:0810B500FB7A20E4FCFDFEFFC4
:0E10BD00E5822582F582E58333F583E5F03385
:0B10CB00F5F0EB33FB4017DAE9804240
:0E10D600E5822582F582E58333F583E5F0336C
:0510E400F5F0EB33FB09
:0E10E900EC33FCED33FDEE33FEEF33FFEC9500
:0610F70041ED9542EE956B
:0810FD0043EF95444013EC950C
:0811050041FCED9542FDEE9561
:09110D0043FEEF9544FF4382010B
:02111600DABE3F
:02111800EB22C8
:06008D00E478FFF6D8FD47
:08006B007900E94400601B7AF2
:05007300009011287847
:030078000075A070
:0A007B0000E493F2A308B8000205A8
:08008500A0D9F4DAF275A0FF26
:04111A0075820022B8
:080093007800E84400600A79DE
:03009B000075A04D
:06009E0000E4F309D8FCA8
:0800A4007800E84400600C79CB
:0B00AC0000900000E4F0A3D8FCD9FA9B
:03005E0075817F2A
:0A00610012111AE582600302005933
:00000001FF
